{
  "contractName": "Investment",
  "abi": [
    {
      "inputs": [
        {
          "internalType": "address",
          "name": "_chainLinkContractAddress",
          "type": "address"
        }
      ],
      "stateMutability": "nonpayable",
      "type": "constructor"
    },
    {
      "inputs": [],
      "name": "fundMe",
      "outputs": [],
      "stateMutability": "payable",
      "type": "function",
      "payable": true
    },
    {
      "inputs": [
        {
          "internalType": "address",
          "name": "_fundAddress",
          "type": "address"
        }
      ],
      "name": "getFundedAddressAmount",
      "outputs": [
        {
          "internalType": "uint256",
          "name": "",
          "type": "uint256"
        }
      ],
      "stateMutability": "view",
      "type": "function",
      "constant": true
    },
    {
      "inputs": [],
      "name": "getChainLinkABIVersion",
      "outputs": [
        {
          "internalType": "uint256",
          "name": "",
          "type": "uint256"
        }
      ],
      "stateMutability": "view",
      "type": "function",
      "constant": true
    },
    {
      "inputs": [],
      "name": "getChainLinkUsdDecimal",
      "outputs": [
        {
          "internalType": "uint256",
          "name": "",
          "type": "uint256"
        }
      ],
      "stateMutability": "view",
      "type": "function",
      "constant": true
    },
    {
      "inputs": [],
      "name": "getEthPriceInUsd",
      "outputs": [
        {
          "internalType": "uint256",
          "name": "",
          "type": "uint256"
        }
      ],
      "stateMutability": "view",
      "type": "function",
      "constant": true
    },
    {
      "inputs": [
        {
          "internalType": "uint256",
          "name": "_amountOfEthInWei",
          "type": "uint256"
        }
      ],
      "name": "converthETHToUSD",
      "outputs": [
        {
          "internalType": "uint256",
          "name": "",
          "type": "uint256"
        }
      ],
      "stateMutability": "view",
      "type": "function",
      "constant": true
    },
    {
      "inputs": [],
      "name": "withdraw",
      "outputs": [],
      "stateMutability": "nonpayable",
      "type": "function"
    },
    {
      "inputs": [],
      "name": "getContractBalance",
      "outputs": [
        {
          "internalType": "uint256",
          "name": "",
          "type": "uint256"
        }
      ],
      "stateMutability": "view",
      "type": "function",
      "constant": true
    }
  ],
  "bytecode": "0x60806040523480156200001157600080fd5b5060405162001135380380620011358339818101604052810190620000379190620000d6565b33600360006101000a81548173ffffffffffffffffffffffffffffffffffffffff021916908373ffffffffffffffffffffffffffffffffffffffff160217905550806000806101000a81548173ffffffffffffffffffffffffffffffffffffffff021916908373ffffffffffffffffffffffffffffffffffffffff160217905550506200015b565b600081519050620000d08162000141565b92915050565b600060208284031215620000ef57620000ee6200013c565b5b6000620000ff84828501620000bf565b91505092915050565b600062000115826200011c565b9050919050565b600073ffffffffffffffffffffffffffffffffffffffff82169050919050565b600080fd5b6200014c8162000108565b81146200015857600080fd5b50565b610fca806200016b6000396000f3fe60806040526004361061007b5760003560e01c80638ab8d40f1161004e5780638ab8d40f1461013c578063b6a324e014610167578063c9cce14914610171578063d67b98a91461019c5761007b565b80631b29446e146100805780633ccfd60b146100bd5780633d1b5618146100d45780636f9fb98a14610111575b600080fd5b34801561008c57600080fd5b506100a760048036038101906100a291906108ba565b6101c7565b6040516100b49190610a51565b60405180910390f35b3480156100c957600080fd5b506100d26101fb565b005b3480156100e057600080fd5b506100fb60048036038101906100f6919061088d565b6103db565b6040516101089190610a51565b60405180910390f35b34801561011d57600080fd5b50610126610424565b6040516101339190610a51565b60405180910390f35b34801561014857600080fd5b5061015161042c565b60405161015e9190610a51565b60405180910390f35b61016f6104d2565b005b34801561017d57600080fd5b506101866105e7565b6040516101939190610a51565b60405180910390f35b3480156101a857600080fd5b506101b1610690565b6040516101be9190610a51565b60405180910390f35b600080670de0b6b3a7640000836101dc610690565b6101e69190610c75565b6101f09190610ad3565b905080915050919050565b3373ffffffffffffffffffffffffffffffffffffffff16600360009054906101000a900473ffffffffffffffffffffffffffffffffffffffff1673ffffffffffffffffffffffffffffffffffffffff161461028b576040517f08c379a000000000000000000000000000000000000000000000000000000000815260040161028290610a11565b60405180910390fd5b3373ffffffffffffffffffffffffffffffffffffffff166108fc479081150290604051600060405180830381858888f193505050501580156102d1573d6000803e3d6000fd5b5060005b60028054905081101561037857600060016000600284815481106102fc576102fb610e13565b5b9060005260206000200160009054906101000a900473ffffffffffffffffffffffffffffffffffffffff1673ffffffffffffffffffffffffffffffffffffffff1673ffffffffffffffffffffffffffffffffffffffff16815260200190815260200160002081905550808061037090610d6c565b9150506102d5565b50600067ffffffffffffffff81111561039457610393610e42565b5b6040519080825280602002602001820160405280156103c25781602001602082028036833780820191505090505b50600290805190602001906103d8929190610768565b50565b6000600160008373ffffffffffffffffffffffffffffffffffffffff1673ffffffffffffffffffffffffffffffffffffffff168152602001908152602001600020549050919050565b600047905090565b60008060009054906101000a900473ffffffffffffffffffffffffffffffffffffffff1673ffffffffffffffffffffffffffffffffffffffff166354fd4d506040518163ffffffff1660e01b815260040160206040518083038186803b15801561049557600080fd5b505afa1580156104a9573d6000803e3d6000fd5b505050506040513d601f19601f820116820180604052508101906104cd91906108e7565b905090565b600068056bc75e2d631000009050806104ea346101c7565b101561052b576040517f08c379a000000000000000000000000000000000000000000000000000000000815260040161052290610a31565b60405180910390fd5b34600160003373ffffffffffffffffffffffffffffffffffffffff1673ffffffffffffffffffffffffffffffffffffffff168152602001908152602001600020600082825461057a9190610a7d565b925050819055506002339080600181540180825580915050600190039060005260206000200160009091909190916101000a81548173ffffffffffffffffffffffffffffffffffffffff021916908373ffffffffffffffffffffffffffffffffffffffff16021790555050565b60008060009054906101000a900473ffffffffffffffffffffffffffffffffffffffff1673ffffffffffffffffffffffffffffffffffffffff1663313ce5676040518163ffffffff1660e01b815260040160206040518083038186803b15801561065057600080fd5b505afa158015610664573d6000803e3d6000fd5b505050506040513d601f19601f82011682018060405250810190610688919061098f565b60ff16905090565b60008060008054906101000a900473ffffffffffffffffffffffffffffffffffffffff1673ffffffffffffffffffffffffffffffffffffffff1663feaf968c6040518163ffffffff1660e01b815260040160a06040518083038186803b1580156106f957600080fd5b505afa15801561070d573d6000803e3d6000fd5b505050506040513d601f19601f820116820180604052508101906107319190610914565b50505091505061073f6105e7565b601261074b9190610ccf565b600a6107579190610b57565b816107629190610c75565b91505090565b8280548282559060005260206000209081019282156107e1579160200282015b828111156107e05782518260006101000a81548173ffffffffffffffffffffffffffffffffffffffff021916908373ffffffffffffffffffffffffffffffffffffffff16021790555091602001919060010190610788565b5b5090506107ee91906107f2565b5090565b5b8082111561080b5760008160009055506001016107f3565b5090565b60008135905061081e81610f21565b92915050565b60008151905061083381610f38565b92915050565b60008135905061084881610f4f565b92915050565b60008151905061085d81610f4f565b92915050565b60008151905061087281610f7d565b92915050565b60008151905061088781610f66565b92915050565b6000602082840312156108a3576108a2610e71565b5b60006108b18482850161080f565b91505092915050565b6000602082840312156108d0576108cf610e71565b5b60006108de84828501610839565b91505092915050565b6000602082840312156108fd576108fc610e71565b5b600061090b8482850161084e565b91505092915050565b600080600080600060a086880312156109305761092f610e71565b5b600061093e88828901610863565b955050602061094f88828901610824565b94505060406109608882890161084e565b93505060606109718882890161084e565b925050608061098288828901610863565b9150509295509295909350565b6000602082840312156109a5576109a4610e71565b5b60006109b384828501610878565b91505092915050565b60006109c9602583610a6c565b91506109d482610e83565b604082019050919050565b60006109ec602783610a6c565b91506109f782610ed2565b604082019050919050565b610a0b81610d3f565b82525050565b60006020820190508181036000830152610a2a816109bc565b9050919050565b60006020820190508181036000830152610a4a816109df565b9050919050565b6000602082019050610a666000830184610a02565b92915050565b600082825260208201905092915050565b6000610a8882610d3f565b9150610a9383610d3f565b9250827fffffffffffffffffffffffffffffffffffffffffffffffffffffffffffffffff03821115610ac857610ac7610db5565b5b828201905092915050565b6000610ade82610d3f565b9150610ae983610d3f565b925082610af957610af8610de4565b5b828204905092915050565b6000808291508390505b6001851115610b4e57808604811115610b2a57610b29610db5565b5b6001851615610b395780820291505b8081029050610b4785610e76565b9450610b0e565b94509492505050565b6000610b6282610d3f565b9150610b6d83610d3f565b9250610b9a7fffffffffffffffffffffffffffffffffffffffffffffffffffffffffffffffff8484610ba2565b905092915050565b600082610bb25760019050610c6e565b81610bc05760009050610c6e565b8160018114610bd65760028114610be057610c0f565b6001915050610c6e565b60ff841115610bf257610bf1610db5565b5b8360020a915084821115610c0957610c08610db5565b5b50610c6e565b5060208310610133831016604e8410600b8410161715610c445782820a905083811115610c3f57610c3e610db5565b5b610c6e565b610c518484846001610b04565b92509050818404811115610c6857610c67610db5565b5b81810290505b9392505050565b6000610c8082610d3f565b9150610c8b83610d3f565b9250817fffffffffffffffffffffffffffffffffffffffffffffffffffffffffffffffff0483118215151615610cc457610cc3610db5565b5b828202905092915050565b6000610cda82610d3f565b9150610ce583610d3f565b925082821015610cf857610cf7610db5565b5b828203905092915050565b6000610d0e82610d1f565b9050919050565b6000819050919050565b600073ffffffffffffffffffffffffffffffffffffffff82169050919050565b6000819050919050565b600060ff82169050919050565b600069ffffffffffffffffffff82169050919050565b6000610d7782610d3f565b91507fffffffffffffffffffffffffffffffffffffffffffffffffffffffffffffffff821415610daa57610da9610db5565b5b600182019050919050565b7f4e487b7100000000000000000000000000000000000000000000000000000000600052601160045260246000fd5b7f4e487b7100000000000000000000000000000000000000000000000000000000600052601260045260246000fd5b7f4e487b7100000000000000000000000000000000000000000000000000000000600052603260045260246000fd5b7f4e487b7100000000000000000000000000000000000000000000000000000000600052604160045260246000fd5b600080fd5b60008160011c9050919050565b7f596f7520617265206e6f7420746865206f776e6572206f662074686520636f6e60008201527f7472616374000000000000000000000000000000000000000000000000000000602082015250565b7f46756e64696e67206e756d626572206d696e696d756d20616d6f756e7420697360008201527f2055534431303000000000000000000000000000000000000000000000000000602082015250565b610f2a81610d03565b8114610f3557600080fd5b50565b610f4181610d15565b8114610f4c57600080fd5b50565b610f5881610d3f565b8114610f6357600080fd5b50565b610f6f81610d49565b8114610f7a57600080fd5b50565b610f8681610d56565b8114610f9157600080fd5b5056fea26469706673582212204181dea5eb3ceded142b69b5bb2ccf6303532cee94c8c7548357d80d7cc64eac64736f6c63430008070033",
  "immutableReferences": {},
  "source": "// SPDX-License-Identifier: GPL-3.0\r\npragma solidity 0.8.7;\r\n\r\nimport \"@chainlink/contracts/src/v0.8/interfaces/AggregatorV3Interface.sol\";\r\n\r\ncontract Investment{\r\n    \r\n    AggregatorV3Interface pricefeed;\r\n    \r\n    mapping(address=>uint) addressAmountFunded;\r\n    address[] fundedAddress;\r\n\r\n    address owner;\r\n    \r\n    constructor(address _chainLinkContractAddress){\r\n        owner = msg.sender;\r\n        pricefeed = AggregatorV3Interface(_chainLinkContractAddress);\r\n    }\r\n    \r\n    function fundMe() public payable{\r\n        \r\n       //Funding minimum of 100 dollors\r\n       uint minimumUSD = 100 * 10 ** 18;\r\n       \r\n       require(converthETHToUSD(msg.value) >= minimumUSD, \"Funding number minimum amount is USD100\");\r\n\r\n       addressAmountFunded[msg.sender] += msg.value;\r\n       fundedAddress.push(msg.sender);\r\n    }\r\n    \r\n    \r\n    function getFundedAddressAmount(address _fundAddress) view public returns(uint){\r\n        return addressAmountFunded[_fundAddress];\r\n    } \r\n    \r\n    \r\n    function getChainLinkABIVersion() view public returns(uint){\r\n        return pricefeed.version();\r\n    }\r\n    \r\n    \r\n    function getChainLinkUsdDecimal() view public returns(uint){\r\n        return pricefeed.decimals();\r\n    }\r\n    \r\n    \r\n    function getEthPriceInUsd() view public returns(uint){\r\n        (,int256 answer,,,) = pricefeed.latestRoundData();\r\n        return (uint256(answer) * (10 ** (18 - getChainLinkUsdDecimal())));\r\n    }\r\n    \r\n    \r\n    function converthETHToUSD(uint _amountOfEthInWei) public view returns(uint){\r\n        uint256 ethInUsd = ((getEthPriceInUsd() * _amountOfEthInWei) /  (10 ** 18));\r\n        return ethInUsd;\r\n    }\r\n    \r\n    \r\n    modifier onlyOwner(){\r\n        require(owner == msg.sender, \"You are not the owner of the contract\");\r\n        _;\r\n    }\r\n    \r\n    function withdraw() public onlyOwner{\r\n        \r\n        payable(msg.sender).transfer(address(this).balance);\r\n        \r\n        \r\n        //update the addressAmountFunded\r\n        for(uint i=0; i<fundedAddress.length; i++){\r\n            addressAmountFunded[fundedAddress[i]] = 0;\r\n        }\r\n        \r\n        fundedAddress = new address[](0);\r\n    }\r\n    \r\n    function getContractBalance() public view returns(uint){\r\n        return address(this).balance;\r\n    }\r\n    \r\n    \r\n}",
  "sourcePath": "D:\\Users\\yesla\\Desktop\\solidityworkspace\\investment\\contracts\\Investment.sol",
  "compiler": {
    "name": "solc",
    "version": "0.8.7+commit.e28d00a7.Emscripten.clang"
  },
  "schemaVersion": "3.4.3",
  "updatedAt": "2021-09-16T01:58:01.479Z",
  "networkType": "ethereum",
  "devdoc": {
    "kind": "dev",
    "methods": {},
    "version": 1
  },
  "userdoc": {
    "kind": "user",
    "methods": {},
    "version": 1
  }
}